:020000040800F2
:10000000903800201D020008210200082302000889
:10001000250200082702000829020008000000004D
:100020000000000000000000000000002B0200089B
:100030002D020008000000002F0200083102000815
:1000400033020008330200083302000833020008BC
:1000500033020008330200085D180008330200086C
:1000600033020008AD1800083519000833020008F3
:10007000330200083302000833020008330200088C
:10008000330200083302000833020008330200087C
:10009000330200083302000833020008330200086C
:1000A000330200083302000833020008330200085C
:1000B00033020008015E0008330200083302000822
:1000C000330200083302000833020008330200083C
:1000D00033020008555F00083302000833020008AD
:1000E000330200083302000833020008330200081C
:1000F000330200083302000833020008330200080C
:1001000033020008330200083302000833020008FB
:100110003302000833020008A15E00083302000821
:1001200033020008330200083302000833020008DB
:1001300000F002F800F063F80AA090E8000C824496
:100140008344AAF10107DA4501D100F058F8AFF273
:10015000090EBAE80F0013F0010F18BFFB1A43F0A5
:1001600001031847B08B0000D08B000010F8013B52
:100170000A4413F0030408BF10F8014B1D1108BF17
:1001800010F8015B641E05D010F8016B641E01F8C5
:10019000016BF9D1002D15D010F8014B03F00C03C1
:1001A0000C2BA1EB04040ABF10F8013BA4EB831451
:1001B000A4EB032405F1010314F8016B5B1E01F8A5
:1001C000016BF9D5914238BF10F8013BD1D370478C
:1001D0000023002400250026103A28BF78C1FBD850
:1001E000520728BF30C148BF0B607047782901F023
:1001F0006181002070471FB51FBD10B510BD01F013
:1002000023FA1146FFF7F7FF06F06AF801F041FA0A
:1002100003B4FFF7F2FF03BC05F0CCFE084800472B
:10022000FEE7FEE7FEE7FEE7FEE7FEE7FEE7FEE7A6
:10023000FEE7FEE703480449024A044B704700000A
:1002400031010008903400209038002090340020C4
:100250002DE9F04F4FF0000C4FF0000301EB9C5ED6
:10026000BEF90250BEF900400EF5806EBEF9029054
:10027000BEF900800EF5806EBEF90270BEF9006016
:100280000EF5806EBEF902B0BEF900A00EF5806ECC
:10029000D044D944A8EB4A0AA9EB4B0B4FEAA4047B
:1002A0004FEAA50504EBA60405EBA705A4EB66063B
:1002B000A5EB670704EBA80405EBA905A4EB680808
:1002C000A5EB690906EBAB06A7EBAA07A6EB6B0B40
:1002D00007EB6A0A458020F8044B478020F8046B3E
:1002E000A0F8029020F8048BA0F802A020F804BB2C
:1002F00003F1010393FAA3FCB3F5807FAED1A0EB29
:1003000082014FF0100312090FF2341000F10000C7
:1003100006B403EB430C6144A2F5803202EB833256
:10032000B1F90250B1F90040A1EB0301B0F902B0FC
:10033000B0F900A000F10400A5EB040E0EFB0BFCCD
:100340000AEB4B0E05FB0ACB04FB0ECAB1F90250B7
:10035000B1F90040A1EB0301B0F90290B0F90080BF
:1003600000F10400A5EB040E0EFB09FC08EB490E9E
:1003700005FB08C904FB0EC8B1F90250B1F90040F1
:10038000A1EB0301B0F90270B0F9006000F10400C4
:10039000A5EB040E0EFB07FC06EB470E05FB06C79C
:1003A00004FB0EC6B1F90250B1F9004001F10001A1
:1003B000D044D944A8EB4A0AA9EB4B0B4FEAA4045A
:1003C0004FEAA50504EB264405EB2745A4EBE636EA
:1003D000A5EBE73704EB284405EB2945A4EBE83807
:1003E000A5EBE93906EB2B46A7EB2A47A6EBEB3B3F
:1003F00007EBEA3A4D800C8019444F800E80194477
:10040000A1F80290A1F800801944A1F802A021F8F7
:1004100004BBB2F5803283DA03EB430C6144A2F1F2
:1004200001025FEA024E18BFA0EB0C007FF476AF2A
:1004300006BC4FEA830392087FF46AAFBDE8F08FF1
:100440000040000000400000004000005DDD213B56
:10045000A3227E180000412D7EA5412D0000412DD4
:1004600000C000405DDD82E75DDD213B7EA5412DC2
:10047000004000000040000000400000AA2A941242
:100480006B39460649327C0CA8118E2349327C0C0C
:10049000A3227E1821F77931AA2A9412A8118E235B
:1004A0005DDD213BA3227E180000412D95C6B13FA2
:1004B000461A2B1E58EE3735BEB4C53EA8118E2302
:1004C0005DDD213B63A97138DF089A28B7CDC53EB1
:1004D0007EA5412D0000412D00C0004063A92B1EC8
:1004E00021F77931BEB4C53EBEB47C0C58EE373529
:1004F00061AC213B95C6BAF9BAE571383BA73735EF
:100500005DDD82E75DDD213B7EA5412D21F766D7CC
:1005100056D53F3D3BA78E23A811C9CAB7CDC53ECE
:1005200061AC7E18AA2AC1C295C6B13FBEB47C0C8C
:100530000040000000400000004000001E3BB504E9
:10054000693E9201C83C2403EB356409C83C24038E
:100550006B3946066C30060E1E3BB504EB3564095C
:10056000AA2A94126B39460649327C0CAE2409172C
:10057000AF37D607882E8D0F7E1E5D1BEB356409C5
:10058000AA2A941224188C1F1E34F10AB32690153F
:10059000A8118E2349327C0CA3227E18140B6027ED
:1005A0006C30060E7E1E5D1B7104FB2A882E8D0F9B
:1005B000461A2B1EC7FD5A2E9D2C1211FE15E72040
:1005C00021F77931AA2A9412A8118E2387F0533487
:1005D000B2281314480D202602EAE536B3269015FA
:1005E000DF089A289CE32B39AE2409177104FB2AF3
:1005F0005DDD213BA3227E180000412D4ED7C53C76
:100600009320EF198FFB6C2F78D1153E7E1E5D1B5A
:1006100021F77931E2CB0F3F641CC61CB8F2683376
:1006200095C6B13F461A2B1E58EE373597C1FB3F92
:1006300024188C1F02EAE536F0BCEC3FFE15E720DB
:10064000BAE57138A6B8853FD5133D2282E1DB3982
:10065000BEB4C53EA8118E235DDD213B40B1AF3D48
:10066000790FDA244DD9423C2EAE423C480D20266B
:1006700056D53F3D8EAB823A140B602778D1153E9C
:1006800063A97138DF089A28B7CDC53EB1A71236E5
:10069000A906CE2915CA4F3F78A668337104FB2AF4
:1006A00095C6B13FBCA576303902212C38C3EC3F4A
:1006B0007EA5412D0000412D00C00040BCA5CE29E3
:1006C000C7FD5A2EF0BCEC3F78A620268FFB6C2F7E
:1006D00009BAB13FB1A73D2257F976304DB74F3F28
:1006E00063A92B1E21F77931BEB4C53E8EABEF193D
:1006F000ECF474325EB2153E2EAE9015B8F268334B
:100700002DB03F3D40B1121187F053342EAE423C24
:10071000BEB47C0C58EE373561AC213BA6B8D60789
:100720002BEC1236C8AADB39F0BC240302EAE5360A
:1007300063A9713897C16EFEDCE7B03734A8E5369F
:1007400095C6BAF9BAE571383BA73735E2CB0FF554
:100750009CE32B3978A6683378D173F082E1DB39DA
:10076000EDA579314ED7EDEB6DDF823A99A56C2F6F
:100770005DDD82E75DDD213B7EA5412D9CE33AE313
:1007800052DBB63B99A5FB2A02EA19DF4DD9423C60
:10079000EDA59A2887F026DB4ED7C53C78A6202603
:1007A00021F766D756D53F3D3BA78E23C7FDDFD344
:1007B00063D3AF3D34A8E720710494D078D1153EBF
:1007C00063A92B1E140B8CCD94CF723EC8AA5D1B5F
:1007D000A811C9CAB7CDC53E61AC7E18241850C84F
:1007E000E2CB0F3F2EAE90157E1E25C615CA4F3F99
:1007F0002DB09412AE244AC451C8853F5EB28D0F0D
:10080000AA2AC1C295C6B13FBEB47C0C6C308EC161
:10081000E2C4D43F4DB76409EB35B1C038C3EC3FF7
:1008200009BA46061E3B2CC097C1FB3FF0BC24030F
:10083000004000000040000000400000D03E2E01BB
:100840009B3F6500363FC9009A3D5B02363FC900B9
:10085000693E92015F3C8803D03E2E019A3D5B02C7
:100860001E3BB504693E9201C83C2403D939E20518
:10087000023EF701F43BED038E380E079A3D5B0212
:100880001E3BB5043F373908313DC002463A7E056C
:10089000EB356409C83C24036B39460692348E0A52
:1008A0005F3C88038E380E073433B70BF43BED03FF
:1008B000AF37D607D231DF0C8A3B5104CE369D08C4
:1008C0006C30060E1E3BB504EB356409022F2B0F6E
:1008D000B23A1A0505352B0A932D5010463A7E057B
:1008E0001E34F10A212C7311D939E2053433B70BC8
:1008F000AA2A94126B39460649327C0C3129B4136A
:10090000FD38AA065B31410DB327D2148E380E078D
:100910006C30060E3226EE151F3872077B2FCA0E7A
:10092000AE240917AF37D607882E8D0F262321183E
:100930003F373908932D50109C213719CE369D082A
:100940009D2C12110E204B1A5D360109A42BD311D8
:100950007E1E5D1BEB356409AA2A9412EB1C6C1CED
:100960007835C709AF295413561B791D05352B0A55
:10097000B2281314BE19841E92348E0AB327D214DF
:1009800024188C1F1E34F10AB32690158816912066
:10099000A933540BB1254C16EA1493213433B70B09
:1009A000AE2409174A139222BF321A0CA923C41786
:1009B000A8118E2349327C0CA3227E1805108824AE
:1009C000D231DF0C9C213719610E7E255B31410D40
:1009D0009320EF19BB0C7126E430A40D891FA71AD0
:1009E000140B60276C30060E7E1E5D1B6D094C28B3
:1009F000F42F680E721D121CC40735297B2FCA0EF6
:100A0000641CC61C1B061A2A022F2B0F561B791DAD
:100A10007104FB2A882E8D0F461A2B1EC702D82B75
:100A20000E2EEE0F3519DC1E1C01B22C932D50102A
:100A300024188C1F72FF882D182DB11011173A2021
:100A4000C7FD5A2E9D2C1211FE15E7201DFC282FE4
:100A5000212C7311EA14932173FAF22FA42BD311D2
:100A6000D5133D22CAF8B830282B3412BF12E72222
:100A700021F77931AA2A9412A8118E2379F53632FA
:100A80002D2AF41291103524D2F3EF32AF295413EA
:100A9000790FDA242CF2A3333129B413610E7E25A9
:100AA00087F05334B2281314480D2026E3EEFF34A8
:100AB000332873142E0CC12641EDA535B327D2146B
:100AC000140B6027A1EB483633273115FA09FE27AE
:100AD00002EAE536B3269015DF089A2865E87E37E6
:100AE0003226EE15C4073529CBE61238B1254C164F
:100AF000A906CE2932E5A1382F25AB168D05652A2A
:100B00009CE32B39AE2409177104FB2A08E2B039A3
:100B10002B24661755038F2B77E0303AA923C4178F
:100B20003902212CE9DEAB3A262321181C01B22C14
:100B30005DDD213BA3227E180000412DD5DB923BD9
:100B40001F22DB18E4FECF2D4FDAFD3B9C21371925
:100B5000C7FD5A2ECDD8643C17219319ABFCE42E67
:100B60004ED7C53C9320EF198FFB6C2FD3D5213D79
:100B70000E204B1A73FAF22F5CD4783D891FA71A06
:100B800057F97630E8D2C93D041F021B3CF8F93012
:100B900078D1153E7E1E5D1B21F779310CD05C3E6D
:100BA000F81DB81B06F6F831A5CE9D3E721D121C2D
:100BB000ECF4743241CDD83EEB1C6C1CD2F3EF3216
:100BC000E2CB0F3F641CC61CB8F2683388CA403FB2
:100BD000DD1B201D9FF1DF3332C96B3F561B791D92
:100BE00087F05334E1C7913FCE1AD31D6FEFC6345F
:100BF00095C6B13F461A2B1E58EE37354EC5CC3F31
:100C0000BE19841E41EDA5350CC4E13F3519DC1E2B
:100C10002BEC1236CFC2F13FAD18341F16EB7D36E8
:100C200097C1FB3F24188C1F02EAE53665C00040DF
:100C30009B17E31FEFE84B3738BFFF3F11173A20F0
:100C4000DCE7B03711BEF83F88169120CBE61238AA
:100C5000F0BCEC3FFE15E720BAE57138D4BBDB3FB2
:100C600074153D21AAE4CF38BFBAC43FEA149321DA
:100C70009CE32B39AFB9A73F5F14E8218EE284399A
:100C8000A6B8853FD5133D2282E1DB39A2B75D3F8F
:100C90004A13922277E0303AA5B6303FBF12E722DE
:100CA0006DDF823AAFB5FD3E34123B2364DED33AAA
:100CB000BEB4C53EA8118E235DDD213BD5B3883E71
:100CC0001D11E22357DC6D3BF2B2453E91103524F5
:100CD00052DBB63B15B2FC3D051088244FDAFD3BD4
:100CE00040B1AF3D790FDA244DD9423C71B05B3D44
:100CF000ED0E2C254DD8853CA9AF033D610E7E2518
:100D00004ED7C53CE8AEA53CD40DCF2551D6033D0A
:100D10002EAE423C480D202656D53F3D7BADDA3BFA
:100D2000BB0C71265CD4783DD0AC6D3B2E0CC1263B
:100D300063D3AF3D2BACFA3AA10B11276DD2E33D43
:100D40008EAB823A140B602778D1153EF8AA063A8A
:100D5000870AAF2785D0453E6AAA8439FA09FE275B
:100D600094CF723EE3A9FD386D094C28A5CE9D3E77
:100D700063A97138DF089A28B7CDC53EEBA8E137E3
:100D80005208E728CCCCEB3E7BA84B37C40735296B
:100D9000E2CB0F3F12A8B13636078129FBCA303F9C
:100DA000B1A71236A906CE2915CA4F3F57A76E35EF
:100DB0001B061A2A32C96B3F05A7C6348D05652A62
:100DC00051C8853FBBA61934FF04B02A72C79C3FA7
:100DD00078A668337104FB2A95C6B13F3EA6B232AD
:100DE000E303452BBAC5C43F0BA6F83155038F2B3F
:100DF000E2C4D43FE0A53931C702D82B0CC4E13F8F
:100E0000BCA576303902212C38C3EC3FA1A5AF2F09
:100E1000AA016A2C66C2F53F8DA5E42E1C01B22CF6
:100E200097C1FB3F81A5152E8E00FA2CCAC0FF3F4B
:100E30007EA5412D0000412D00C0004081A56A2CF7
:100E400072FF882D38BFFF3F8DA58F2BE4FECF2D7D
:100E500073BEFB3FA1A5B02A56FE152EB0BDF53FCF
:100E6000BCA5CE29C7FD5A2EF0BCEC3FE0A5E72873
:100E700039FD9F2E32BCE13F0BA6FE27ABFCE42ED2
:100E800077BBD43F3EA611271DFC282FBFBAC43F15
:100E900078A620268FFB6C2F09BAB13FBBA62C2564
:100EA00001FBAF2F56B99C3F05A7352473FAF22FEB
:100EB000A6B8853F57A73B23E5F93430F8B76B3F19
:100EC000B1A73D2257F976304DB74F3F12A83D21CB
:100ED000CAF8B830A5B6303F7BA83A203CF8F930C4
:100EE00000B60F3FEBA8341FAEF739315EB5EB3ECD
:100EF00063A92B1E21F77931BEB4C53EE3A9201D9D
:100F000093F6B93122B49D3E6AAA121C06F6F83156
:100F100088B3723EF8AA021B79F53632F2B2453E2A
:100F20008EABEF19ECF474325EB2153E2BACDB18CD
:100F30005FF4B232CDB1E33DD0ACC417D2F3EF329F
:100F400040B1AF3D7BADAB1645F32C33B5B0783D2A
:100F50002EAE9015B8F268332DB03F3DE8AE731455
:100F60002CF2A333A9AF033DA9AF54139FF1DF3394
:100F700028AFC53C71B0341213F11934A9AE853CC9
:100F800040B1121187F053342EAE423C15B2EE0F31
:100F9000FBEF8D34B6ADFD3BF2B2CA0E6FEFC63437
:100FA00041ADB63BD5B3A40DE3EEFF34D0AC6D3B01
:100FB000BEB47C0C58EE373561AC213BAFB5540B59
:100FC000CCED6E35F6ABD33AA5B62B0A41EDA5357F
:100FD0008EAB823AA2B70109B6ECDC3529AB303AC8
:100FE000A6B8D6072BEC1236C8AADB39AFB9AA06C9
:100FF000A1EB48366AAA8439BFBA7E0516EB7D3666
:101000000FAA2B39D4BB51048CEAB136B7A9CF381B
:10101000F0BC240302EAE53663A9713811BEF7017A
:1010200078E9183712A9123838BFC900EFE84B37F2
:10103000C5A8B03765C09BFF65E87E377BA84B37F6
:1010400097C16EFEDCE7B03734A8E536CFC240FD6D
:1010500053E7E137F1A77D360CC413FCCBE6123819
:10106000B1A712364EC5E6FA42E6423874A7A53556
:1010700095C6BAF9BAE571383BA73735E1C78EF89E
:1010800032E5A13805A7C63432C963F7AAE4CF38E0
:10109000D3A6533488CA39F623E4FD38A4A6DF3337
:1010A000E2CB0FF59CE32B3978A6683341CDE6F30C
:1010B00015E3583950A6EF32A5CEBFF28EE284393F
:1010C0002CA674320CD098F108E2B0390BA6F83196
:1010D00078D173F082E1DB39EDA57931E8D24FEFB9
:1010E000FCE0063AD3A5F9305CD42DEE77E0303A37
:1010F000BCA57630D3D50CEDF2DF593AA9A5F22F75
:101100004ED7EDEB6DDF823A99A56C2FCDD8CFEAA3
:10111000E9DEAB3A8DA5E42E4FDAB4E964DED33ACA
:1011200085A55A2ED5DB9AE8E1DDFA3A7FA5CF2DC9
:101130005DDD82E75DDD213B7EA5412DE9DE6DE6CB
:10114000DADC473B7FA5B22C77E059E557DC6D3BF5
:1011500085A5212C08E248E4D5DB923B8DA58F2B99
:101160009CE33AE352DBB63B99A5FB2A32E52DE23C
:10117000D1DADA3BA9A5652ACBE624E14FDAFD3BBB
:10118000BCA5CE2965E81DE0CED9203CD3A53529E4
:1011900002EA19DF4DD9423CEDA59A28A1EB18DEF1
:1011A000CDD8643C0BA6FE2741ED19DD4DD8853C1A
:1011B0002CA66027E3EE1EDCCDD7A53C50A6C126A9
:1011C00087F026DB4ED7C53C78A620262CF231DAF4
:1011D000CFD6E43CA4A67E25D2F33FD951D6033D19
:1011E000D3A6DA2479F551D8D3D5213D05A73524E6
:1011F00021F766D756D53F3D3BA78E23CAF87FD649
:10120000D8D45B3D74A7E72273FA9BD55CD4783DB4
:10121000B1A73D221DFCBBD4DFD3933DF1A79321A1
:10122000C7FDDFD363D3AF3D34A8E72072FF06D3F9
:10123000E8D2C93D7BA83A201C0131D26DD2E33DF2
:10124000C5A88C1FC70261D1F2D1FC3D12A9DC1EDA
:10125000710494D078D1153E63A92B1E1B06CCCF08
:10126000FED02D3EB7A9791DC40707CF85D0453ED6
:101270000FAAC61C6D0947CE0CD05C3E6AAA121C90
:10128000140B8CCD94CF723EC8AA5D1BBB0CD4CC82
:101290001CCF883E29ABA71A610E21CCA5CE9D3E5E
:1012A0008EABEF19051073CB2ECEB13EF6AB3719CE
:1012B000A811C9CAB7CDC53E61AC7E184A1324CA6D
:1012C00041CDD83ED0ACC417EA1483C9CCCCEB3E98
:1012D00041AD09178816E8C857CCFD3EB6AD4C168F
:1012E000241850C8E2CB0F3F2EAE9015BE19BEC7D2
:1012F0006ECB203FA9AED214561B31C7FBCA303F7C
:1013000028AF1314EB1CA8C688CA403FA9AF5413DA
:101310007E1E25C615CA4F3F2DB094120E20A7C5BC
:10132000A3C95D3FB5B0D3119C212DC532C96B3F18
:1013300040B112112623B9C4C1C8783FCDB15010B5
:10134000AE244AC451C8853F5EB28D0F3226E0C339
:10135000E1C7913FF2B2CA0EB3277BC372C79C3F6D
:1013600088B3060E31291CC303C7A73F22B4410D21
:10137000AA2AC1C295C6B13FBEB47C0C212C6DC255
:1013800027C6BB3F5EB5B70B932D1DC2BAC5C43F80
:1013900000B6F10A022FD3C14EC5CC3FA5B62B0A29
:1013A0006C308EC1E2C4D43F4DB76409D2314FC115
:1013B00076C4DB3FF8B79D08343315C10CC4E13F58
:1013C000A6B8D6079234E0C0A1C3E73F56B90E07CE
:1013D000EB35B1C038C3EC3F09BA46063F3788C089
:1013E000CFC2F13FBFBA7E058E3864C066C2F53FFA
:1013F00077BBB504D93945C0FEC1F83F32BCED0317
:101400001E3B2CC097C1FB3FF0BC24035F3C19C0BE
:1014100030C1FD3FB0BD5B029A3D0BC0CAC0FF3F6B
:1014200073BE9201D03E03C065C0004038BFC90002
:10143000704700000FB4044910B503AA029800F0E9
:10144000CDF810BC5DF814FB4C0300202DE9F041F1
:101450000E460446002020622046E168884730B3EB
:10146000252805D0D4E901219047206A401CF2E7E5
:10147000E168204600278847050018D0A5F1410003
:10148000192802D820354FF40067324629462046F5
:101490002760FEF7ABFE40B1012804D0F61D26F010
:1014A00007060836D8E7361DD6E72846DAE7206A69
:1014B000BDE8F08170B504460D4621461068AFF3D3
:1014C00000802188090502D50F4A7A4402E00E4ABD
:1014D0007A440E32002104F1240305E000F00F06E7
:1014E0000009965D5E54491C0028F7D1207800233E
:1014F000000704D5702D02D009B102231132204615
:10150000BDE8704000F011B81C78000070477047CB
:101510007047704710B500F073F8006810BD10B543
:10152000044600F06DF8046010BD2DE9F0470D464B
:1015300099469246044600F124080168880604D5BD
:10154000E06921F01001216000E00120A84201DDE6
:10155000471B00E00027A1697A1902EB0900081A6D
:10156000A0612078C00602D42046AFF30080002698
:1015700008E0D4E901211AF806009047206A401CCF
:10158000761C20624E45F4DB2078C0060AD5204642
:10159000AFF3008006E0D4E9012130209047206AB3
:1015A000401C2062381EA7F10107F4DC07E0D4E9F3
:1015B000012118F805009047206A401C2062281E6F
:1015C000A5F10105F3DC2046AFF30080207800068A
:1015D00002D50220BDE8F0870120FBE7074B70B57C
:1015E0000D467B4400F015F80446284600F024F828
:1015F00010B14FF0FF3070BD204670BD3B4B000076
:10160000004870472C34002001694A1C02610878A8
:10161000704700B58FB0CDE9013100210591054932
:101620007944CDE9031011466846FFF70FFF0FB06C
:1016300000BD0000E5FFFFFF007B00F08000704769
:10164000004870472C3400207546FFF7F9FFAE467E
:1016500005006946534620F00700854618B020B5BE
:10166000FEF7E8FDBDE820404FF000064FF0000710
:101670004FF000084FF0000B21F00701AC46ACE83A
:10168000C009ACE8C009ACE8C009ACE8C0098D46A7
:10169000704710B50446AFF300802046BDE8104007
:1016A000FEF7B6BD3748816941F0040181613649D2
:1016B0000A6822F0F0020A60816941F400718161D8
:1016C000C16841F40071C160C16821F40071C1605A
:1016D000416821F440414160416841F4004141606A
:1016E0002A4801682A4A11400160016801600168C6
:1016F00021F480710160001D016821F00201016088
:10170000016821F460210160016841F460210160F9
:10171000016841F480110160016821F400610160F9
:10172000016841F400010160184928310A6822F477
:1017300070020A600A680A6014490C310A6822F0D3
:1017400003020A600A6842F038020A60011D0A6852
:1017500022F4E0120A600A6842F4E0120A600168AA
:1017600041F001010160016841F008010160016878
:101770000907FCD4016841F00401016001684907D0
:10178000FCD47047001002400008014004240140CE
:10179000FFFFF0000848816941F0080181610748B6
:1017A000016821F00F010160016841F0030101604F
:1017B000034900200860704700100240040C0140FB
:1017C000A08121421348816941F004018161C1690E
:1017D00041F00051C1611048016821F4702101609D
:1017E000016801600D48016841F001010160016874
:1017F00041F0020101600168016001680160016857
:10180000016001680160016801600449002008313D
:10181000086070470010024000080140007400405A
:1018200010B505F01FFC0A4905F022FB0C2105F05C
:101830003EFE05F07DFA4FF06632064B04F0FCFEEA
:1018400004F0C0FE05F0D6FB0349086010BD00009F
:1018500000007A4466660A400874004010B50A2009
:1018600004F036FC0E48D0F800110123012913D1F1
:101870000C4AD178012904D0022905D0032906D0C9
:1018800006E00221D17003E00321D17000E0D370A3
:10189000D0F800110129FBD00348036010BD0000FF
:1018A0000000214200000020140401407CB50A2001
:1018B00004F00EFC174CD4F80C01C0B91649174AB5
:1018C00010238D784FF48670012D14D0158845F0C3
:1018D0000105158001228A7011A1CDE90031C822CD
:1018E000082104F079F9D4F80C010028FBD00E4946
:1018F000082008607CBD158825F0010515800022B0
:101900008A700AA1CDE900311023C822082104F011
:1019100063F9E8E7000023420000002000040040D3
:10192000574F524B000000001404014053544F50D5
:1019300020200000F8B50A2004F0CAFB1E4CD4F8A1
:1019400010011026A8BB1D491F2008801C4D2878B7
:10195000401CC0B228700A226421012806D0022847
:1019600007D0032808D004280CD012E06981AA818E
:101970000FE06A81A9810CE0022068814FF4FA70BF
:10198000A88106E04FF47A7068810120A8810020C8
:10199000287000960323AA89DC2140F2091004F084
:1019A000DDF868890749401E0880D4F81001002836
:1019B000FBD005480660F8BD00002342500300201C
:1019C000000000202C0400401404014010B500F079
:1019D0000BF900210222084600F02AF80122022118
:1019E000042000F025F801220321042000F020F853
:1019F00004210122084600F01BF8022306220321DD
:101A0000184604F085F9022308221946184604F006
:101A10007FF9022309220121184604F079F90223F3
:101A20000A22BDE810400021184604F071B90000F8
:101A300070B58B088C07240F124DAE6946F0010675
:101A4000AE619D00104B2B449D680F26A640B54308
:101A50009D609D68A04005439D600C4B1C68012063
:101A6000884004431C60D10704D0084B0C3319682C
:101A700001431960910704D5044908310A680243FB
:101A80000A6070BD001002400000014000040140E7
:101A90002DE9F84F002600253F494FF4806201F5FB
:101AA0008050FEF7D5FB01243C4F4FF4007857F8E7
:101AB00024900FFA89F005F0BDFA82464FEA2940DA
:101AC00005F0B8FA014605F015FB8146514650462F
:101AD00005F010FB494605F057F905F029F904F027
:101AE000F3FC04F06FFD81462946484605F0CEFB25
:101AF00001D24D462646641CA4B24445D7D3284D96
:101B00006FF009076C89B4F57A7F0CD1304604F088
:101B100018FF3A4605F09DFC0022224B04F024FFFA
:101B200004F0E2FE6862642C0CD1304604F009FF38
:101B30003A4605F08EFC00221B4B04F015FF04F022
:101B4000D3FE68620A2C0CD1304604F0FAFE3A4605
:101B500005F07FFC0022154B04F006FF04F0C4FEE4
:101B60006862022C0CD1304604F0EBFE3A4605F0D8
:101B700070FC00220E4B04F0F7FE04F0B5FE686224
:101B8000102000900523B92140F209106A6A03F081
:101B9000E5FFBDE8F88F0000541300205423002017
:101BA0000000002000408F40008DC3408076F84048
:101BB000007D0E410B490A6822F01F020A600A6884
:101BC00002430A6007482C38016841F48001016033
:101BD0000448343801688907FCD502481830006889
:101BE00080B27047342401401048816941F00401FB
:101BF0008161816941F0400181610D48016821F0F6
:101C00000F010160016841F00801016009480168A5
:101C1000094A114001600168084A11430160054802
:101C20000C30016841F01C01016070470010024057
:101C30000008014000180140FF00F0FF0088080084
:101C40002DE9F04306460024174F38887D88454328
:101C5000B888A0F5D041043902D1B879012807D05D
:101C60000021084603F052FE03F0ECFF0F4916E096
:101C70000020B8714FF02A09A7F80A904FF02B08FE
:101C8000A7F80C800021084603F040FE0120B8713F
:101C9000A7F80A80A7F80C90E6E70E80641CAC4217
:101CA000FBD3BDE8F08300001C3400200008006C6A
:101CB0002DE9F04F4D492A232B24898845F2105CE9
:101CC0004FF430584FF428594FF448754FF0F00A4C
:101CD00049F2413B4FF4A07745F210364FF4F072D1
:101CE000002810D041484FF0010E80F806E0078030
:101CF000A0F802A0594501D0B14240D12C25058160
:101D0000438184815CE039484FF0000E80F806E0A2
:101D1000A0F800A04780594506D0A1F5D04ABAF1F5
:101D2000040A01D0B1420CD12C2505814381848164
:101D3000A1F5D043043B01D0B14249D10780428094
:101D400046E0614509D1A0F80880A0F80A904FF458
:101D50002C518181028045803AE0A1F5C856633E4E
:101D600006D02221018120214181212181812FE082
:101D70002C210181448183810280458028E0A1F5E6
:101D8000D04ABAF1040A0BD061450ED1A0F8088000
:101D9000A0F80A904FF42C538381058042800FE015
:101DA0002C250581448183810AE0A1F5C85CBCF142
:101DB000630C12D0222303812123438120238381BA
:101DC000A1F5D043043B01D0B14201D1028047804C
:101DD000BDE8F04F002003F08DBC4FF02C0CA0F8B4
:101DE00008C04381848105804280E9E71C340020DB
:101DF0002DE9FE4F00250026171AA3EB01088146A6
:101E00008A46681E002F03DD4FF00101019107E0B3
:101E100003D14FF00001019102E00190C7F10007EA
:101E2000B8F1000F03DD4FF00100009007E003D18F
:101E30004FF00000009002E00090C8F10008474514
:101E400001DD3C4600E044464FF0000B601C029070
:101E500015E01FFA8AF11FFA89F000F015F83D44E9
:101E60004644A54202DD2D1B01988144A64202DDB5
:101E7000361B009882440BF1010B1FFA8BFB029872
:101E80008345E6DDBDE8FE8F00B503F03FFD03F0BE
:101E9000D9FE024802490088088000BD5003002096
:101EA0000008006C2DE9F04103460C4690464C4F6B
:101EB000220A3846B9881D0A4089A1F51346413ED9
:101EC00019D0A1F5A646103E15D0A1F5AA46103EA0
:101ED00023D03D46A1F5C85CAE792D88ED1A6D1E64
:101EE000BCF1630C35D0A1F5D04CBCF1040C51D041
:101EF000012E64D064E003F09FFE284603F096FEB6
:101F0000D8B203F093FEB88903F096FE104603F0B2
:101F10008DFEE0B203F08AFE59E003F08DFE284604
:101F200003F084FE7889401C80B203F085FED8B2AD
:101F300003F07CFEB88903F07FFE104603F076FEC6
:101F4000B889401C80B203F077FEE0B203F06EFE69
:101F50003DE006B9ABB203F06FFE1D0A284603F060
:101F600065FED8B203F062FE284603F05FFED8B2E9
:101F700003F05CFEB88903F05FFE104603F056FEE6
:101F8000E0B203F053FE104603F050FEE0B203F05F
:101F90004DFE1CE0012E00D1ABB203F04DFE180A3D
:101FA00003F044FED8B203F041FEB88903F044FECA
:101FB000104603F03BFEE0B203F038FE07E0ABB2A0
:101FC000194603F049FEB889214603F045FE05494C
:101FD00038890880881CA0F80080BDE8F0810000E6
:101FE0001C340020FE07006C2DE9F05FFE484069BC
:101FF000FD4940F4807048610846806940F008005F
:1020000088610846806940F0200088610846806940
:1020100040F0400088610846806940F48070886123
:10202000F248016821F00F010160016841F00301ED
:102030000160EF480168EF4A114001600168EE4A13
:1020400011430160001F016801F0FF210160016878
:1020500041F0BB110160E94801680021016002689C
:1020600042F0BB320260001F026822F07042026040
:10207000026842F030420260E148426822F4702275
:102080004260426842F430224260026822F00F024D
:102090000260026842F00B0202604FF02040816152
:1020A000C161C0F81C11816941F48051816181696D
:1020B00041F480418161816941F010018161C16910
:1020C000C161C16941F00101C161C16941F470613F
:1020D000C161D0F81C11C0F81C11D0F81C11C0F857
:1020E0001C11D0F81C1141F44071C0F81C11816919
:1020F00041F001018161322003F0EAFF002003F08A
:10210000C9FADFF800A3AAF8040049F2413546F6FF
:10211000040845F2103945F210544FF6FF7641F6A7
:102120006317FF2804D3B04202D0B0F5134F7DD11E
:10213000D32003F081FD03F0A3FAAAF8040003F012
:102140009FFAAAF8040003F09BFA06EA0020AAF816
:10215000040003F095FABAF804100843AAF8040042
:10216000A84279D0BF2003F067FD03F089FAAAF8EE
:10217000040003F085FAAAF8040003F081FAAAF833
:10218000040003F07DFA06EA0020AAF8040003F038
:1021900077FABAF804100843AAF8040040455BD067
:1021A000D42003F049FD03F06BFAAAF8040003F011
:1021B00067FAAAF8040003F063FA06EA0020AAF816
:1021C000040003F05DFABAF804100843AAF804000A
:1021D000484541D04FF45A4003F02EFD03F050FA29
:1021E000AAF804004FF45B4003F026FD03F048FA20
:1021F00006EA0020AAF804004FF45C4003F01CFD3E
:1022000003F03EFABAF804100843AAF80400B0F547
:10221000004F01D1AAF80440BAF80400A0421BD034
:10222000A12003F009FD03F02BFA00E014E0AAF866
:10223000040003F025FA06EA0020AAF8040003F0DF
:102240001FFABAF804100843AAF80400A0F5AE413A
:10225000613901D1AAF80470BAF804106AA0FFF736
:10226000E9F8BAF80400A8427ED1CF2003F0E4FCDC
:10227000002003F0DBFCC12003F0D8FC302003F089
:10228000D5FCED2003F0D8FC642003F0CFFC032044
:1022900003F0CCFC122003F0C9FC812003F0C6FC43
:1022A000E82003F0C9FC852003F0C0FC102003F0F7
:1022B000BDFC7A2003F0BAFCCB2003F0BDFC392032
:1022C00003F0B4FC2C2003F0B1FC002003F0AEFCC2
:1022D000342003F0ABFC022003F0A8FCF72003F04D
:1022E000ABFC202003F0A2FCEA2003F0A5FC0020B8
:1022F00003F09CFC002003F099FCC02003F09CFC40
:102300001B2003F093FCC12003F096FC012003F096
:102310008DFCC52003F090FC302003F087FC3020BA
:1023200003F084FCC72003F087FCB72003F07EFC99
:10233000362003F081FC482003F078FC3A2003F0BB
:102340007BFC552003F072FCB12003F075FC0020EB
:1023500003F06CFC1A2003F069FCB62003F06CFC5F
:102360000A2003F063FC00E0B1E0A22003F05EFC71
:10237000F22003F061FC002003F058FC262003F05B
:102380005BFC012003F052FCE02003F055FC0F2021
:1023900003F04CFC2A2003F049FC282003F046FC03
:1023A000082003F043FC0E2003F040FC082003F05B
:1023B0003DFC542003F03AFCA92003F037FC4320F5
:1023C00003F034FC0A2003F031FC0F2003F02EFC54
:1023D000002003F02BFC002003F028FC002003F079
:1023E00025FC002018E0000000100240000C014015
:1023F0000414014000F0FF00BB0B00BB04180140B7
:10240000002001401C340020204C43442049443A21
:1024100025780D0A0000000003F008FCE12003F01D
:102420000BFC002003F002FC152003F0FFFB17203B
:1024300003F0FCFB072003F0F9FB112003F0F6FB8F
:10244000062003F0F3FB2B2003F0F0FB562003F0F3
:10245000EDFB3C2003F0EAFB052003F0E7FB102036
:1024600003F0E4FB0F2003F0E1FB3F2003F0DEFB71
:102470003F2003F0DBFB0F2003F0D8FB2B2003F001
:10248000DBFB002003F0D2FB002003F0CFFB012098
:1024900003F0CCFB3F2003F0C9FB2A2003F0CCFB68
:1024A000002003F0C3FB002003F0C0FB002003F07A
:1024B000BDFBEF2003F0BAFB112003F0BDFB782039
:1024C00003F006FE292003F0B7FB02F0ACB840454C
:1024D0007ED1112003F0B0FB142003F0F9FDD020D1
:1024E00003F0AAFB072003F0A1FB422003F09EFBB0
:1024F0001D2003F09BFBD12003F09EFB002003F086
:1025000095FB1A2003F092FB092003F08FFBD220E9
:1025100003F092FB012003F089FB222003F086FBED
:10252000C02003F089FB102003F080FB3B2003F068
:102530007DFB002003F07AFB022003F077FB1120E3
:1025400003F074FBC52003F077FB032003F06EFB60
:10255000C82003F071FB002003F068FB252003F086
:1025600065FB212003F062FB052003F05FFB0020E8
:1025700003F05CFB0A2003F059FB652003F056FBD7
:10258000252003F053FB772003F050FB502003F08D
:102590004DFB0F2003F04AFB002003F047FBF8201F
:1025A00003F04AFB012003F041FBFE2003F044FB53
:1025B000002003F03BFB022003F038FB202003F057
:1025C0003BFB362003F038FB082003F02FFB00E034
:1025D0002AE03A2003F030FB552003F027FB2B20A4
:1025E00003F02AFB002003F021FB002003F01EFB78
:1025F000012003F01BFB3F2003F018FB2A2003F00F
:102600001BFB002003F012FB002003F00FFB012056
:1026100003F00CFBDF2003F009FB782003F058FDEA
:10262000292003F009FB50E748457CD1ED2003F059
:1026300003FB012003F0FAFAFE2003F0F7FAEE2084
:1026400003F0FAFADE2003F0F1FA212003F0EEFAAB
:10265000F12003F0F1FA012003F0E8FADF2003F0A3
:10266000EBFA102003F0E2FAC42003F0E5FA8F2021
:1026700003F0DCFAC62003F0DFFA002003F0D6FAFC
:10268000E22003F0D3FAE22003F0D0FAE22003F0D4
:10269000CDFABF2003F0D0FAAA2003F0C7FAB02089
:1026A00003F0CAFA0D2003F0C1FA002003F0BEFACD
:1026B0000D2003F0BBFA002003F0B8FA112003F05C
:1026C000B5FA002003F0B2FA192003F0AFFA0020A7
:1026D00003F0ACFA212003F0A9FA002003F0A6FAD7
:1026E0002D2003F0A3FA002003F0A0FA3D2003F010
:1026F0009DFA002003F09AFA5D2003F097FA00207B
:1027000003F094FA5D2003F091FA002003F08EFAB2
:10271000B12003F091FA802003F088FA002003F042
:1027200085FA8B2000E0FCE303F080FA002003F040
:102730007DFA962003F07AFA002003F077FAB220AF
:1027400003F07AFA002003F071FA002003F06EFA29
:10275000022003F06BFA002003F068FA032003F074
:1027600065FA002003F062FAB32003F065FA002056
:1027700003F05CFA002003F059FA002003F056FA47
:10278000002003F053FA002003F050FA002003F079
:102790004DFA002003F04AFA002003F047FA002027
:1027A00003F044FA002003F041FA002003F03EFA5F
:1027B000002003F03BFA002003F038FA002003F079
:1027C00035FA002003F032FA002003F02FFA00203F
:1027D00003F02CFA002003F029FA002003F026FA77
:1027E000002003F023FA002003F020FA002003F079
:1027F0001DFA002003F01AFA002003F017FAB420A3
:1028000003F01AFA8B2003F011FA002003F00EFAFD
:10281000962003F00BFA002003F008FAA12003F041
:1028200005FA002003F002FAB52003F005FA0220B1
:1028300003F0FCF9002003F0F9F9032003F0F6F9A6
:10284000002003F0F3F9042003F0F0F9002003F076
:10285000EDF9B62003F0F0F9002003F0E7F90020CD
:1028600003F0E4F9B72003F0E7F9002003F0DEF904
:10287000002003F0DBF93F2003F0D8F9002003F03B
:10288000D5F95E2003F0D2F9002003F0CFF96420DF
:1028900003F0CCF9002003F0C9F98C2003F0C6F94D
:1028A000002003F0C3F9AC2003F0C0F9002003F0CE
:1028B000BDF9DC2003F0BAF9002003F0B7F970206D
:1028C00003F0B4F9002003F0B1F9902003F0AEF961
:1028D000002003F0ABF9EB2003F0A8F9002003F08F
:1028E000A5F9DC2003F0A2F9002003F09FF9B8203D
:1028F00003F0A2F9002003F099F9002003F096F903
:10290000002003F093F9002003F090F9002003F079
:102910008DF9002003F08AF9002003F087F90020E8
:1029200003F084F9BA2003F087F9242003F07EF93C
:10293000002003F07BF9002003F078F9002003F079
:1029400075F9C12003F078F9202003F06FF9002019
:1029500003F06CF9542003F069F9002003F066F9E4
:10296000FF2003F063F9002003F060F9C22003F0B8
:1029700063F90A2003F05AF9002003F057F9042004
:1029800003F054F9002003F051F9C32003F054F987
:102990003C2003F04BF9002003F048F93A2003F003
:1029A00045F9002003F042F9392003F03FF90020F7
:1029B00003F03CF9372003F039F9002003F036F931
:1029C0003C2003F033F9002003F030F9362003F007
:1029D0002DF9002003F02AF9322003F027F9002016
:1029E00003F024F92F2003F021F9002003F01EF951
:1029F0002C2003F01BF9002003F018F9292003F024
:102A000015F9002003F012F9262003F00FF9002039
:102A100003F00CF9242003F009F9002003F006F973
:102A2000242003F003F9002003F000F9232003F031
:102A3000FDF8002003F0FAF83C2003F0F7F800203E
:102A400003F0F4F8362003F0F1F8002003F0EEF87C
:102A5000322003F0EBF8002003F0E8F82F2003F019
:102A6000E5F8002003F0E2F82C2003F0DFF8002066
:102A700003F0DCF8292003F0D9F8002003F0D6F8A1
:102A8000262003F0D3F8002003F0D0F8242003F030
:102A9000CDF8002003F0CAF8242003F0C7F8002086
:102AA00003F0C4F8232003F0C1F8002003F0BEF8BF
:102AB000C42003F0C1F8622003F0B8F8002003F04E
:102AC000B5F8052003F0B2F8002003F0AFF8842039
:102AD00003F0ACF8002003F0A9F8F02003F0A6F80A
:102AE000002003F0A3F8182003F0A0F8002003F062
:102AF0009DF8A42003F09AF8002003F097F818201E
:102B000003F094F8002003F091F8502003F08EF8C1
:102B1000002003F08BF80C2003F088F8002003F06D
:102B200085F8172003F082F8002003F07FF8952045
:102B300003F07CF8002003F079F8F32003F076F836
:102B4000002003F073F8E62003F070F8002003F093
:102B50006DF8C52003F070F8322003F067F800200C
:102B600003F064F8442003F061F8002003F05EF8FD
:102B7000652003F05BF8002003F058F8762003F09E
:102B800055F8002003F052F8882003F04FF8002099
:102B900003F04CF8C62003F04FF8202003F046F86D
:102BA000002003F043F8172003F040F8002003F062
:102BB0003DF8012003F03AF8002003F037F8C72071
:102BC00003F03AF8002003F031F8002003F02EF86B
:102BD000002003F02BF8002003F028F8C82003F0B1
:102BE0002BF8002003F022F8002003F01FF800204B
:102BF00003F01CF8002003F019F8C92003F01CF8BA
:102C0000002003F013F8002003F010F8002003F078
:102C10000DF8002003F00AF8002003F007F8002068
:102C200003F004F8002003F001F8002002F0FEFF9A
:102C3000002002F0FBFF002002F0F8FF002002F06D
:102C4000F5FF002002F0F2FF002002F0EFFF00206D
:102C500002F0ECFF002002F0E9FF002002F0E6FFA6
:102C6000E02002F0E9FF162002F0E0FF002002F071
:102C7000DDFF1C2002F0DAFF002002F0D7FF212048
:102C800002F0D4FF002002F0D1FF362002F0CEFF88
:102C9000002002F0CBFF462002F0C8FF002002F027
:102CA000C5FF522002F0C2FF002002F0BFFF6420E7
:102CB00002F0BCFF002002F0B9FF7A2002F0B6FF5C
:102CC000002002F0B3FF8B2002F0B0FF002002F0E2
:102CD000ADFF992002F0AAFF002002F0A7FFA82074
:102CE00002F0A4FF002002F0A1FFB92002F09EFF35
:102CF000002002F09BFFC42002F098FF002002F0A9
:102D000095FFCA2002F092FF002002F08FFFD22030
:102D100002F08CFF002002F089FFD92002F086FF2C
:102D2000002002F083FFE02002F080FF002002F08C
:102D30007DFFF32002F07AFF002002F077FFE12010
:102D400002F07AFF162002F071FF002002F06EFF01
:102D50001C2002F06BFF002002F068FF222002F02E
:102D600065FF002002F062FF362002F05FFF0020C6
:102D700002F05CFF452002F059FF002002F056FFF0
:102D8000522002F053FF002002F050FF642002F0B6
:102D90004DFF002002F04AFF7A2002F047FF00209A
:102DA00002F044FF8B2002F041FF002002F03EFFC2
:102DB000992002F03BFF002002F038FFA82002F02B
:102DC00035FF002002F032FFB92002F02FFF002073
:102DD00002F02CFFC42002F029FF002002F026FFA1
:102DE000CA2002F023FF002002F020FFD22002F0D0
:102DF0001DFF002002F01AFFD82002F017FF00206C
:102E000002F014FFE02002F011FF002002F00EFF9C
:102E1000F32002F00BFF002002F008FFE22002F096
:102E20000BFF052002F002FF002002F0FFFE0B2046
:102E300002F0FCFE002002F0F9FE1B2002F0F6FE7C
:102E4000002002F0F3FE342002F0F0FE002002F039
:102E5000EDFE442002F0EAFE002002F0E7FE4F20E3
:102E600002F0E4FE002002F0E1FE612002F0DEFE4E
:102E7000002002F0DBFE792002F0D8FE002002F0F4
:102E8000D5FE882002F0D2FE002002F0CFFE97206F
:102E900002F0CCFE002002F0C9FEA62002F0C6FE21
:102EA000002002F0C3FEB72002F0C0FE002002F0B6
:102EB000BDFEC22002F0BAFE002002F0B7FEC7201D
:102EC00002F0B4FE002002F0B1FED12002F0AEFE0E
:102ED000002002F0ABFED62002F0A8FE002002F097
:102EE000A5FEDD2002F0A2FE002002F09FFEF320EE
:102EF00002F09CFE002002F099FEE32002F09CFE0E
:102F0000052002F093FE002002F090FE0A2002F05D
:102F10008DFE002002F08AFE1C2002F087FE0020B9
:102F200000E0FFE202F082FE332002F07FFE00208C
:102F300002F07CFE442002F079FE002002F076FED2
:102F4000502002F073FE002002F070FE622002F0BA
:102F50006DFE002002F06AFE782002F067FE00207D
:102F600002F064FE882002F061FE002002F05EFEA6
:102F7000972002F05BFE002002F058FEA62002F02F
:102F800055FE002002F052FEB72002F04FFE002056
:102F900002F04CFEC22002F049FE002002F046FE84
:102FA000C72002F043FE002002F040FED12002F0D4
:102FB0003DFE002002F03AFED52002F037FE002050
:102FC00002F034FEDD2002F031FE002002F02EFE81
:102FD000F32002F02BFE002002F028FEE42002F095
:102FE0002BFE012002F022FE002002F01FFE012035
:102FF00002F01CFE002002F019FE022002F016FE74
:10300000002002F013FE2A2002F010FE002002F041
:103010000DFE3C2002F00AFE002002F007FE4B20CD
:1030200002F004FE002002F001FE5D2002F0FEFD31
:10303000002002F0FBFD742002F0F8FD002002F0F9
:10304000F5FD842002F0F2FD002002F0EFFD932058
:1030500002F0ECFD002002F0E9FDA22002F0E6FD06
:10306000002002F0E3FDB32002F0E0FD002002F0BA
:10307000DDFDBE2002F0DAFD002002F0D7FDC42005
:1030800002F0D4FD002002F0D1FDCD2002F0CEFDF3
:10309000002002F0CBFDD32002F0C8FD002002F09A
:1030A000C5FDDD2002F0C2FD002002F0BFFDF320CF
:1030B00002F0BCFD002002F0B9FDE52002F0BCFDED
:1030C000002002F0B3FD002002F0B0FD002002F06D
:1030D000ADFD002002F0AAFD022002F0A7FD0020B5
:1030E00002F0A4FD292002F0A1FD002002F09EFDC7
:1030F0003C2002F09BFD002002F098FD4B2002F0E6
:1031000095FD002002F092FD5D2002F08FFD002071
:1031100002F08CFD742002F089FD002002F086FD93
:10312000842002F083FD002002F080FD932002F055
:103130007DFD002002F07AFDA22002F077FD002044
:1031400002F074FDB32002F071FD002002F06EFD6C
:10315000BE2002F06BFD002002F068FDC42002F0EA
:1031600065FD002002F062FDCD2002F05FFD002031
:1031700002F05CFDD32002F059FD002002F056FD64
:10318000DC2002F053FD002002F050FDF32002F09D
:103190004DFD002002F04AFDE62002F04DFD112019
:1031A00002F044FD002002F041FD342002F03EFD1B
:1031B000002002F03BFD562002F038FD002002F016
:1031C00035FD762002F032FD002002F02FFD772041
:1031D00002F02CFD002002F029FD662002F026FD01
:1031E000002002F023FD882002F020FD002002F0E4
:1031F0001DFD992002F01AFD002002F017FDBB20F2
:1032000002F014FD002002F011FD992002F00EFDE5
:10321000002002F00BFD662002F008FD002002F005
:1032200005FD552002F002FD002002F0FFFC5520B4
:1032300002F0FCFC002002F0F9FC452002F0F6FC54
:10324000002002F0F3FC432002F0F0FC002002F02A
:10325000EDFC442002F0EAFC002002F0E7FCE7204D
:1032600002F0EAFC322002F0E1FC002002F0DEFC79
:10327000552002F0DBFC002002F0D8FC762002F0A2
:10328000D5FC002002F0D2FC662002F0CFFC00202A
:1032900002F0CCFC672002F0C9FC002002F0C6FC62
:1032A000672002F0C3FC002002F0C0FC872002F07F
:1032B000BDFC002002F0BAFC992002F0B7FC00200F
:1032C00002F0B4FCBB2002F0B1FC002002F0AEFC26
:1032D000992002F0ABFC002002F0A8FC772002F05D
:1032E000A5FC002002F0A2FC442002F09FFC00207C
:1032F00002F09CFC562002F099FC002002F096FCA3
:10330000232002F093FC002002F090FC332002F016
:103310008DFC002002F08AFC452002F087FC002092
:1033200002F084FCE82002F087FC002002F07EFC22
:10333000002002F07BFC992002F078FC002002F0D3
:1033400075FC872002F072FC002002F06FFC8820E0
:1033500002F06CFC002002F069FC772002F066FCB1
:10336000002002F063FC662002F060FC002002F006
:103370005DFC882002F05AFC002002F057FCAA20D5
:1033800002F054FC002002F051FCBB2002F04EFC85
:10339000002002F04BFC992002F048FC002002F0D3
:1033A00045FC662002F042FC002002F03FFC552064
:1033B00002F03CFC002002F039FC552002F036FC03
:1033C000002002F033FC442002F030FC002002F028
:1033D0002DFC442002F02AFC002002F027FC55209E
:1033E00002F024FC002002F021FCE92002F024FC81
:1033F000AA2002F01BFC002002F018FC002002F0C2
:1034000015FC002002F012FC002002F015FCAA209E
:1034100002F00CFCCF2002F00FFC002002F006FCB2
:10342000002002F003FC002002F000FC002002F06B
:10343000FDFB002002F0FAFB002002F0F7FB002069
:1034400002F0F4FB002002F0F1FB002002F0EEFBA2
:10345000002002F0EBFB002002F0E8FB002002F06D
:10346000E5FB002002F0E2FB002002F0DFFB002081
:1034700002F0DCFB002002F0D9FB002002F0D6FBBA
:10348000F02002F0D9FB002002F0D0FB502002F027
:10349000CDFB002002F0CAFB002002F0C7FB002099
:1034A00002F0C4FBF32002F0C7FB002002F0BEFBD9
:1034B000F92002F0C1FB062002F0B8FB102002F058
:1034C000B5FB292002F0B2FB002002F0AFFB3A204E
:1034D00002F0B2FB552002F0A9FB112002F0ACFB78
:1034E000642002F0F5FD292002F0A6FB352002F051
:1034F000A3FB002002F09AFB512002F09DFBFF206D
:1035000002F094FB532002F097FB2C2002F08EFB7C
:10351000552002F091FB822002F088FB2C2002F063
:103520008BFBFDE3A0427CD14FF47043552118463C
:1035300002F092FB4FF20104AA21204602F08CFB1C
:10354000651C5221284602F087FBA71C082138463B
:1035500002F082FB4FF204080121404602F07CFB9E
:103560000D214FF4304002F077FB0D214BF20100AA
:1035700002F072FB0D214BF2020002F06DFB4FF4E2
:1035800036493421484602F067FB34214BF2016092
:1035900002F062FB34214BF2026002F05DFB4FF45B
:1035A000314A0D21504602F057FB4BF2011B0D2111
:1035B000584602F051FB0D214BF2021002F04CFB79
:1035C00034214FF4374002F047FB34214BF20170B5
:1035D00002F042FB34214BF2027002F03DFB00216D
:1035E0004FF4324002F038FB00214BF2012002F090
:1035F00033FB00214BF2022002F02EFB24214FF47A
:10360000384002F029FB24214BF6010002F024FB94
:1036100024214BF6020002F01FFB01214FF43F4032
:1036200000E0FCE302F018FB0F214FF4334002F0FE
:1036300013FB0F214BF2013002F00EFB0F214BF276
:10364000023002F009FB34214FF4394002F004FB50
:1036500034214BF6011002F0FFFA34214BF6021030
:1036600002F0FAFA08214FF4354002F0F5FA082189
:103670004BF2015002F0F0FA08214BF2025002F036
:10368000EBFA03214FF4424002F0E6FA24214FF412
:103690003A4002F0E1FA24214BF6012002F0DCFA74
:1036A00024214BF6022002F0D7FA00214FF43C40CF
:1036B00002F0D2FA78214BF6014002F0CDFA002157
:1036C0004BF6024002F0C8FA00214FF43D4002F0F0
:1036D000C3FA78214BF6015002F0BEFA00214BF6F6
:1036E000025002F0B9FA00214FF43E4002F0B4FA61
:1036F00064214BF6016002F0AFFA00214FF4514013
:1037000002F0AAFA33214DF2011002F0A5FA0021CD
:103710004DF2021002F0A0FA34214DF2031002F033
:103720009BFA00214DF2041002F096FA3A214DF274
:10373000051002F091FA00214DF2061002F08CFA09
:103740004A214DF2071002F087FA00214DF20810CD
:1037500002F082FA5C214DF2091002F07DFA00219C
:103760004DF20A1002F078FA81214DF20B1002F0AE
:1037700073FA00214DF20C1002F06EFAA6214DF200
:103780000D1002F069FA00214DF20E1002F064FAF9
:10379000E5214DF20F1002F05FFA01214DF21010F9
:1037A00002F05AFA13214DF2111002F055FA0121DC
:1037B0004DF2121002F050FA54214DF2131002F0A3
:1037C0004BFA01214DF2141002F046FA82214DF21B
:1037D000151002F041FA01214DF2161002F03CFAE8
:1037E000CA214DF2171002F037FA02214DF21810DB
:1037F00002F032FA00214DF2191002F02DFA0221E6
:103800004DF21A1002F028FA01214DF21B1002F0BD
:1038100023FA02214DF21C1002F01EFA34214DF25F
:103820001D1002F019FA02214DF21E1002F014FAD6
:1038300067214DF21F1002F00FFA02214DF2201005
:1038400002F00AFA84214DF2211002F005FA022159
:103850004DF2221002F000FAA4214DF2231002F0E2
:10386000FBF902214DF2241002F0F6F9B7214DF2D6
:10387000251002F0F1F902214DF2261002F0ECF9C8
:10388000CF214DF2271002F0E7F902214DF2281066
:1038900002F0E2F9DE214DF2291002F0DDF90221F9
:1038A0004DF22A1002F0D8F9F2214DF22B1002F05D
:1038B000D3F902214DF22C1002F0CEF9FE214DF287
:1038C0002D1002F0C9F903214DF22E1002F0C4F9B7
:1038D00010214DF22F1002F0BFF903214DF23010EC
:1038E00002F0BAF933214DF2311002F0B5F903219B
:1038F0004DF2321002F0B0F96D214DF2331002F0AA
:10390000ABF900214FF4524002F0A6F933214DF2F9
:10391000012002F0A1F900214DF2022002F09CF9F1
:1039200034214DF2032002F097F900214DF20420DA
:1039300002F092F93A214DF2052002F08DF90021B2
:103940004DF2062002F088F94A214DF2072002F0DC
:1039500083F900214DF2082002F07EF95C214DF23E
:10396000092002F079F900214DF20A2002F074F9E1
:1039700081214DF20B2002F06FF900214DF20C2055
:1039800002F06AF9A6214DF20D2002F065F900213E
:103990004DF20E2002F060F9E5214DF20F2002F009
:1039A0005BF901214DF2102002F056F913214DF27E
:1039B000112002F051F901214DF2122002F04CF9D0
:1039C00054214DF2132002F047F901214DF2142049
:1039D00002F042F982214DF2152002F03DF9012159
:1039E0004DF2162002F038F9CA214DF2172002F0EC
:1039F00033F902214DF2182002F02EF900214DF288
:103A0000192002F029F902214DF21A2002F024F9BE
:103A100001214DF21B2002F01FF902214DF21C2062
:103A200002F01AF934214DF21D2002F015F902219D
:103A30004DF21E2002F010F967214DF21F2002F016
:103A40000BF902214DF2202002F006F984214DF2FB
:103A5000212002F001F902214DF2222002F0FCF8AF
:103A6000A4214DF2232002F0F7F802214DF2242088
:103A700002F0F2F8B7214DF2252002F0EDF8022114
:103A80004DF2262002F0E8F8CF214DF2272002F077
:103A9000E3F802214DF2282002F0DEF8DE214DF29B
:103AA000292002F0D9F802214DF22A2002F0D4F8A0
:103AB000F2214DF22B2002F0CFF802214DF22C2002
:103AC00002F0CAF8FE214DF22D2002F0C5F80321C4
:103AD0004DF22E2002F0C0F810214DF22F2002F0FE
:103AE000BBF803214DF2302002F0B6F833214DF23D
:103AF000312002F0B1F803214DF2322002F0ACF88F
:103B00006D214DF2332002F0A7F800214FF453400D
:103B100002F0A2F833214DF2013002F09DF80021AD
:103B20004DF2023002F098F834214DF2033002F0E9
:103B300093F800214DF2043002F08EF83A214DF254
:103B4000053002F089F800214DF2063002F084F8C9
:103B50004A214DF2073002F07FF800214DF2083083
:103B600002F07AF85C214DF2093002F075F800217C
:103B70004DF20A3002F070F881214DF20B3002F064
:103B80006BF800214DF20C3002F066F8A6214DF2E0
:103B90000D3002F061F800214DF20E3002F05CF8B9
:103BA000E5214DF20F3002F057F801214DF21030AF
:103BB00002F052F813214DF2113002F04DF80121BC
:103BC0004DF2123002F048F854214DF2133002F059
:103BD00043F801214DF2143002F03EF882214DF2FB
:103BE000153002F039F801214DF2163002F034F8A8
:103BF000CA214DF2173002F02FF802214DF2183091
:103C000002F02AF800214DF2193002F025F80221C5
:103C10004DF21A3002F020F801214DF21B3002F073
:103C20001BF802214DF21C3002F016F834214DF23F
:103C30001D3002F011F802214DF21E3002F00CF896
:103C400067214DF21F3002F007F802214DF22030BB
:103C500002F002F884214DF2213001F0FDFF022133
:103C60004DF2223001F0F8FFA4214DF2233001F093
:103C7000F3FF02214DF2243001F0EEFFB7214DF2A7
:103C8000253001F0E9FF02214DF2263001F0E4FF7A
:103C9000CF214DF2273001F0DFFF02214DF2283015
:103CA00001F0DAFFDE214DF2293001F0D5FF0221CB
:103CB0004DF22A3001F0D0FFF2214DF22B3001F00D
:103CC000CBFF02214DF22C3001F0C6FFFE214DF258
:103CD0002D3001F0C1FF03214DF22E3001F0BCFF69
:103CE00010214DF22F3001F0B7FF03214DF230309B
:103CF00001F0B2FF33214DF2313001F0ADFF03216D
:103D00004DF2323001F0A8FF6D214DF2333001F059
:103D1000A3FF00214FF4544001F09EFF332100E047
:103D200082E34DF2014001F097FF00214DF2024085
:103D300001F092FF34214DF2034001F08DFF00218C
:103D40004DF2044001F088FF3A214DF2054001F0A8
:103D500083FF00214DF2064001F07EFF4A214DF223
:103D6000074001F079FF00214DF2084001F074FF97
:103D70005C214DF2094001F06FFF00214DF20A4035
:103D800001F06AFF81214DF20B4001F065FF002137
:103D90004DF20C4001F060FFA6214DF20D4001F004
:103DA0005BFF00214DF20E4001F056FFE5214DF280
:103DB0000F4001F051FF01214DF2104001F04CFF86
:103DC00013214DF2114001F047FF01214DF2124045
:103DD00001F042FF54214DF2134001F03DFF01215B
:103DE0004DF2144001F038FF82214DF2154001F0F0
:103DF00033FF01214DF2164001F02EFFCA214DF292
:103E0000174001F029FF02214DF2184001F024FF74
:103E100000214DF2194001F01FFF022100E004E3F0
:103E20004DF21A4001F018FF01214DF21B4001F044
:103E300013FF02214DF21C4001F00EFF34214DF220
:103E40001D4001F009FF02214DF21E4001F004FF68
:103E500067214DF21F4001F0FFFE02214DF220408C
:103E600001F0FAFE84214DF2214001F0F5FE02211D
:103E70004DF2224001F0F0FEA4214DF2234001F06A
:103E8000EBFE02214DF2244001F0E6FEB7214DF297
:103E9000254001F0E1FE02214DF2264001F0DCFE5A
:103EA000CF214DF2274001F0D7FE02214DF22840EC
:103EB00001F0D2FEDE214DF2294001F0CDFE0221BB
:103EC0004DF22A4001F0C8FEF2214DF22B4001F0E4
:103ED000C3FE02214DF22C4001F0BEFEFE214DF248
:103EE0002D4001F0B9FE03214DF22E4001F0B4FE49
:103EF00010214DF22F4001F0AFFE03214DF2304072
:103F000001F0AAFE33214DF2314001F0A5FE03215C
:103F10004DF2324001F0A0FE6D214DF2334001F030
:103F20009BFE00214FF4554001F096FE33214DF2E7
:103F3000015001F091FE00214DF2025001F08CFE83
:103F400034214DF2035001F087FE00214DF2045060
:103F500001F082FE3A214DF2055001F07DFE002174
:103F60004DF2065001F078FE4A214DF2075001F063
:103F700073FE00214DF2085001F06EFE5C214DF2FF
:103F8000095001F069FE00214DF20A5001F064FE73
:103F900081214DF20B5001F05FFE00214DF20C50DB
:103FA00001F05AFEA6214DF20D5001F055FE002100
:103FB0004DF20E5001F050FEE5214DF20F5001F090
:103FC0004BFE01214DF2105001F046FE13214DF23F
:103FD000115001F041FE01214DF2125001F03CFE62
:103FE00054214DF2135001F037FE01214DF21450CF
:103FF00001F032FE82214DF2155001F02DFE01211B
:104000004DF2165001F028FECA214DF2175001F072
:1040100023FE02214DF2185001F01EFE00214DF248
:10402000195001F019FE02214DF21A5001F014FE50
:1040300001214DF21B5001F00FFE02214DF21C50E8
:1040400001F00AFE34214DF21D5001F005FE02215F
:104050004DF21E5001F000FE67214DF21F5001F09D
:10406000FBFD02214DF2205001F0F6FD84214DF2BE
:10407000215001F0F1FD02214DF2225001F0ECFD42
:10408000A4214DF2235001F0E7FD02214DF224500E
:1040900001F0E2FDB7214DF2255001F0DDFD0221D6
:1040A0004DF2265001F0D8FDCF214DF2275001F0FE
:1040B000D3FD02214DF2285001F0CEFDDE214DF25C
:1040C000295001F0C9FD02214DF22A5001F0C4FD32
:1040D000F2214DF22B5001F0BFFD02214DF22C5088
:1040E00001F0BAFDFE214DF22D5001F0B5FD032186
:1040F0004DF22E5001F0B0FD10214DF22F5001F085
:10410000ABFD03214DF2305001F0A6FD33214DF2FD
:10411000315001F0A1FD03214DF2325001F09CFD20
:104120006D214DF2335001F097FD00214FF45640C0
:1041300001F092FD33214DF2016001F08DFD00216F
:104140004DF2026001F088FD34214DF2036001F070
:1041500083FD00214DF2046001F07EFD3A214DF215
:10416000056001F079FD00214DF2066001F074FD5B
:104170004A214DF2076001F06FFD00214DF2086009
:1041800001F06AFD5C214DF2096001F065FD00213E
:104190004DF20A6001F060FD81214DF20B6001F0EB
:1041A0005BFD00214DF20C6001F056FDA6214DF2A1
:1041B0000D6001F051FD00214DF20E6001F04CFD4B
:1041C000E5214DF20F6001F047FD01214DF2106035
:1041D00001F042FD13214DF2116001F03DFD01217E
:1041E0004DF2126001F038FD54214DF2136001F0E0
:1041F00033FD01214DF2146001F02EFD82214DF2BC
:10420000156001F029FD01214DF2166001F024FD39
:10421000CA214DF2176001F01FFD02214DF2186016
:1042200001F01AFD00214DF2196001F015FD022187
:104230004DF21A6001F010FD01214DF21B6001F0FA
:104240000BFD02214DF21C6001F006FD34214DF200
:104250001D6001F001FD02214DF21E6001F0FCFC29
:1042600067214DF21F6001F0F7FC02214DF2206042
:1042700001F0F2FC84214DF2216001F0EDFC0221FD
:104280004DF2226001F0E8FCA4214DF2236001F020
:10429000E3FC02214DF2246001F0DEFCB7214DF277
:1042A000256001F0D9FC02214DF2266001F0D4FC1A
:1042B000CF214DF2276001F0CFFC02214DF22860A2
:1042C00001F0CAFCDE214DF2296001F0C5FC02219B
:1042D0004DF22A6001F0C0FCF2214DF22B6001F09A
:1042E000BBFC02214DF22C6001F0B6FCFE214DF228
:1042F0002D6001F0B1FC03214DF22E6001F0ACFC09
:1043000010214DF22F6001F0A7FC03214DF2306027
:1043100001F0A2FC33214DF2316001F09DFC03213C
:104320004DF2326001F098FC6D214DF2336001F0E6
:1043300093FC5521184601F08FFCAA21204601F07C
:104340008BFC5221284601F087FC0821384601F0F9
:1043500083FC0021404601F07FFCCC21504601F057
:104360007BFC0021584601F077FC0521484601F00E
:1043700073FC70214FF4374001F06EFC70214BF25A
:10438000017001F069FC01214FF4384001F064FC38
:1043900003214BF6010001F05FFC03214BF6020004
:1043A00001F05AFC03214BF6030001F055FC0221F9
:1043B0004FF43C4001F050FC00214BF6014001F06D
:1043C0004BFC00214BF6024001F046FCD0214FF49B
:1043D000494001F041FC02214CF6011001F03CFC87
:1043E00050214CF6021001F037FC50214CF603101E
:1043F00001F032FC50214CF6041001F02DFC00219C
:104400004FF4545001F028FC55214FF4685001F04E
:1044100023FC4FF4885001F00FFC782001F06CFE73
:104420004FF4245001F008FCFDE0A0F513414FF4D7
:1044300080744FF4E06840F2022940F23F1A4FF4D2
:10444000274B25397DD0A0F5134140F20775283957
:1044500078D0A0F513414FF4887B203973D0A0F5B4
:104460001341313970D0A0F5A84108396DD0A0F5BD
:10447000A8514FF4407B053968D0A0F53541053986
:1044800065D0A0F5454105397ED0A0F58A41313986
:104490007BD0A0F58A41353978D0B842C4D1E2202A
:1044A00001F0CAFB1D2001F0C1FB022001F0BEFBA0
:1044B000042001F0BBFB642001F01EFEE02001F0AF
:1044C000BBFB012001F0B2FB0A2001F001FEE0205D
:1044D00001F0B2FB032001F0A9FB0C2001F0F8FD74
:1044E000012001F0A9FB0A2001F0F2FDE62001F015
:1044F000A3FB2F2001F09AFBFF2001F097FBFF2088
:1045000001F094FBB02001F097FB202001F08EFB1E
:10451000002001F08BFB032001F088FB40F21F30EC
:1045200001F084FB012001F081FB40F2DF1001F07B
:104530007DFB002001F07AFBB42001F07DFB04201C
:1045400006E07BE04BE137E2E0E2BBE3FDE3FDE3C5
:1045500001F06CFB40F21F4001F068FB002001F00D
:1045600065FB2E2001F062FB002001F05FFB0020C4
:1045700001F05CFB002001F059FB002001F056FB2C
:10458000B62001F059FB02E0FEE3FEE3FEE3022069
:1045900001F04CFB4FF4037001F048FB002001F0E8
:1045A00045FB172001F042FB152001F03FFB0020E6
:1045B00001F03CFB002001F039FBF02001F03CFB56
:1045C000032001F033FB292001F036FBD02001F05D
:1045D00033FB002001F02AFBBE2001F02DFB05205B
:1045E00001F024FBFE2001F021FB012001F01EFB65
:1045F000002001F01BFB002001F018FB002001F05F
:1046000015FBB82001F018FB032001F00FFB01207F
:1046100001F00CFBBA2001F00FFB012001F006FBBA
:10462000642001F041F80120FDF742FBFE49012022
:1046300008603046BDE8F05FFDF702BB47F6F001C9
:10464000E52001F009FB2146012001F005FB414670
:10465000022001F001FB41F23001032001F0FCFADD
:104660000021042001F0F8FA4946082001F0F4FA8C
:104670000021092001F0F0FA00210A2001F0ECFAF3
:1046800000210C2001F0E8FA00210D2001F0E4FAED
:1046900000210F2001F0E0FA0021102001F0DCFAE7
:1046A0000721112001F0D8FA0021122001F0D4FADC
:1046B0000021132001F0D0FA0021072001F0CCFAEC
:1046C00041F29061102001F0C7FA40F22721112039
:1046D00001F0C2FA9D21122001F0BEFA4FF4C85138
:1046E000132001F0B9FA2521292001F0B5FA0D2196
:1046F0002B2001F0B1FA0721302001F0ADFA40F291
:104700000331312001F0A8FA0321322001F0A4FA8C
:1047100040F20621352001F09FFA0821362001F0F1
:104720009BFA40F20641372001F096FA4FF44171AE
:10473000382001F091FA0721392001F08DFA40F27A
:1047400002613C2001F088FA08213D2001F084FA42
:104750000021502001F080FAEF21512001F07CFA75
:104760000021522001F078FA5146532001F074FAEA
:104770005946602001F070FA0121612001F06CFAC5
:1047800000216A2001F068FA0021802001F064FA1B
:104790000021812001F060FA0021822001F05CFA02
:1047A0000021832001F058FA0021842001F054FAFE
:1047B0000021852001F050FA1021902001F04CFAE0
:1047C0004FF4C061922001F047FA40F23311072004
:1047D00001F042FA2221002001F03EFA23E741F2E3
:1047E0008F01EC2001F038FA41F23421EF2001F082
:1047F00033FA2146012001F02FFA4146022001F050
:104800002BFA41F23001032001F026FA00210420A6
:1048100001F022FA4946082001F01EFA0021092081
:1048200001F01AFA00210A2001F016FA01210C20E9
:1048300001F012FA00210D2001F00EFA00210F20E4
:1048400001F00AFA0021102001F006FA07211120D8
:1048500001F002FA0021122001F0FEF900211320DC
:1048600001F0FAF90121072001F0F6F9322001F0F8
:104870002FFC41F29041102001F0EEF940F2272187
:10488000112001F0E9F9322001F022FC8A211220E6
:1048900001F0E2F9322001F01BFC4FF4D05113205B
:1048A00001F0DAF90621292001F0D6F90D212B209B
:1048B00001F0D2F9322001F00BFC0021202001F0A0
:1048C000CBF90021212001F0C7F9322001F000FCD2
:1048D0000021302001F0C0F940F20461312001F0E4
:1048E000BBF940F20531322001F0B6F90021352044
:1048F00001F0B2F940F60941362001F0ADF94FF46C
:104900000171372001F0A8F940F20131382001F09F
:10491000A3F92946392001F09FF900213C2001F03C
:104920009BF940F60A213D2001F096F9322001F072
:10493000CFFB0021502001F08FF9EF21512001F031
:104940008BF90021522001F087F95146532001F0E4
:1049500083F95946602001F07FF90121612001F0BF
:104960007BF900216A2001F077F90021802001F015
:1049700073F90021812001F06FF90021822001F0FC
:104980006BF90021832001F067F90021842001F0F8
:1049900063F90021852001F05FF91021902001F0DA
:1049A0005BF94FF4C061922001F056F940F23311E7
:1049B000072001F051F936E60021084601F04CF9D4
:1049C0002146012001F048F94146022001F044F956
:1049D00041F23001032001F03FF90021042001F0F1
:1049E0003BF94946082001F037F90021092001F080
:1049F00033F900210A2001F02FF901210C2001F0E8
:104A00002BF900210D2001F027F900210F2001F0E2
:104A100023F9322001F05CFB40F20111072001F084
:104A20001BF9322002E000008081214201F050FB9E
:104A30004FF48651102001F00FF90721112001F0E9
:104A40000BF95946122001F007F94FF43061132099
:104A500001F002F90021292001F0FEF844F21001D2
:104A60002B2001F0F9F80021502001F0F5F8EF219A
:104A7000512001F0F1F80021522001F0EDF85146EB
:104A8000532001F0E9F84FF41C51602001F0E4F8E4
:104A90000121612001F0E0F800216A2001F0DCF83A
:104AA0000021802001F0D8F80021812001F0D4F805
:104AB0000021822001F0D0F80021832001F0CCF801
:104AC0000021842001F0C8F80021852001F0C4F8FD
:104AD0001021902001F0C0F80021922001F0BCF8D4
:104AE0000121932001F0B8F85946952001F0B4F85F
:104AF0000021972001F0B0F80021982001F0ACF8D7
:104B000040F27311072001F0A7F88CE541F214017F
:104B1000E72001F0A1F82146012001F09DF84FF4B3
:104B20000071022001F098F841F23801032001F0F1
:104B300093F84946082001F08FF80021092001F080
:104B40008BF800210A2001F087F800210C2001F0E9
:104B500083F800210D2001F07FF800210F2001F0E3
:104B60007BF80021102001F077F80721112001F0D7
:104B700073F80021122001F06FF80021132001F0DA
:104B80006BF8C82001F0A4FA41F29061102001F006
:104B900063F840F22721112001F05EF8322001F085
:104BA00097FA0C21122001F057F8322001F090FA08
:104BB0004FF40061132001F04FF81121292001F07A
:104BC0004BF80B212B2001F047F8322001F080FA3E
:104BD0000021202001F040F85146212001F03CF84E
:104BE0000021302001F038F84FF48373194631204A
:104BF00001F032F80021322001F02EF84FF401715B
:104C0000352001F029F841F20A61362001F024F83C
:104C10002946372001F020F81946382001F01CF809
:104C20002946392001F018F840F202413C2001F0F9
:104C300013F840F60F413D2001F00EF800215020FE
:104C400001F00AF8EF21512001F006F8002152206E
:104C500001F002F85146532000F0FEFF4FF41C51C2
:104C6000602000F0F9FF0121612000F0F5FF002134
:104C70006A2000F0F1FF0021802000F0EDFF00210C
:104C8000812000F0E9FF0021822000F0E5FF0021F3
:104C9000832000F0E1FF0021842000F0DDFF0021EF
:104CA000852000F0D9FF1021902000F0D5FF4FF4AF
:104CB000C061922000F0D0FF40F23311072000F0D5
:104CC000CBFFB0E42146012000F0C6FF41460220A0
:104CD00000F0C2FF41F23001032000F0BDFF0021CF
:104CE000042000F0B9FF40F20721082000F0B4FFD3
:104CF0000021092000F0B0FF00210A2000F0ACFFE5
:104D000000210C2000F0A8FF00210D2000F0A4FFDE
:104D100000210F2000F0A0FF142001F0D9F941F28A
:104D2000B061102000F098FF0121112000F094FFE5
:104D30000121172000F090FF4FF49C71122000F029
:104D40008BFF4FF40061132001E060E069E100F0A7
:104D500083FF0921292000F07FFF09212A2000F08C
:104D60007BFF0021A42000F077FF0021502000F0FD
:104D700073FFEF21512000F06FFF0021522000F05F
:104D80006BFF5146532002E048E211E3C5E300F017
:104D900063FF4FF41C51602000F05EFF0121612091
:104DA00000F05AFF00216A2000F056FF0021802009
:104DB00000F052FF0021812000F04EFF00218220F0
:104DC00000F04AFF0021832000F046FF00218420EC
:104DD00000F042FF0021852000F03EFF13219020CB
:104DE00000F03AFF0021922000F036FF03219320CB
:104DF00000F032FF5946952000F02EFF40F273116B
:104E0000072000F029FF322001F062F90BE40021B5
:104E1000072000F021FF322001F05AF94FF48E7183
:104E2000122000F019FF0121A42000F015FF0F212E
:104E3000082000F011FF08210A2000F00DFF0821D2
:104E40000D2000F009FF2946302000F005FF072162
:104E5000312000F001FF40F20361322000F0FCFE3F
:104E60004146332000F0F8FE4946342000F0F4FEBD
:104E70000221352000F0F0FE41F60F71362000F0DF
:104E8000EBFE2946372000F0E7FE0021382000F035
:104E9000E3FE0021392000F0DFFE29463A2000F031
:104EA000DBFE00213B2000F0D7FE07213C2000F074
:104EB000D3FE00213D2000F0CFFE322001F008F9A2
:104EC0000121072000F0C8FE0121172000F0C4FED8
:104ED000322001F0FDF84FF4BD51102000F0BCFE6F
:104EE00040F21721112000F0B7FE4FF48F7112200D
:104EF00000F0B2FE4FF47061132000F0ADFE00210F
:104F00002A2000F0A9FE0A21292000F0A5FE4FF476
:104F10009F71122000F0A0FE0021502000F09CFEA6
:104F2000EF21512000F098FE0021522000F094FE65
:104F30005146532000F090FE4FF41C51602000F0C9
:104F40008BFE0121612000F087FE00216A2000F025
:104F500083FE0021802000F07FFE0021812000F0F0
:104F60007BFE0021822000F077FE0021832000F0EC
:104F700073FE0021842000F06FFE0021852000F0E8
:104F80006BFE1321902000F067FE5946922000F03E
:104F900063FE0521932000F05FFE0021952000F0C4
:104FA0005BFE0021972000F057FE0021982000F0C2
:104FB00053FE2146012000F04FFE4146022000F042
:104FC0004BFE41F23801032000F046FE0021042090
:104FD00000F042FE00210C2000F03EFE00210F20D8
:104FE00000F03AFE0021202000F036FE00212120B2
:104FF00000F032FE2121072000F02EFE142001F0E7
:1050000067F86121072000F027FE142001F060F806
:1050100040F27311072000F01FFE142001F058F831
:10502000C9E40021084600F017FE0021084600F000
:1050300013FE0021084600F00FFE0021084600F094
:105040000BFE0121A42000F007FE142001F040F81F
:105050004FF41C552946602000F0FEFD494608200B
:1050600000F0FAFD4FF40571302000F0F5FD43F239
:105070001571312000F0F0FD40F20461322000F0A3
:10508000EBFD40F61661332000F0E6FD42F21121FF
:10509000342000F0E1FD4FF4A851352000F0DCFD94
:1050A00048F20751362000F0D7FD41F20741372082
:1050B00000F0D2FD41F20341382000F0CDFD202167
:1050C000392000F0C9FD1A21902000F0C5FD002113
:1050D000102000F0C1FD0721112000F0BDFD0021CE
:1050E000122000F0B9FD0021132000F0B5FD1420BE
:1050F00000F0EEFF4FF4E661102000F0ADFD40F24D
:105100003711112000F0A8FD142000F0E1FF4FF44A
:10511000DC71122000F0A0FD142000F0D9FF4FF444
:105120007061132000F098FD80212A2000F094FD8A
:105130004821292000F090FD142000F0C9FF2146ED
:10514000012000F089FD4146022000F085FD41F27A
:105150003801032000F080FD4946082000F07CFD66
:1051600000210A2000F078FD00210C2000F074FDE1
:1051700000210D2000F070FD30210E2000F06CFDAC
:105180000021502000F068FDEF21512000F064FD67
:105190000021522000F060FD5146532000F05CFDDC
:1051A0002946602000F058FD0121612000F054FDE7
:1051B00000216A2000F050FD1121902000F04CFDEC
:1051C0004FF4C061922000F047FD40F2024193206D
:1051D00000F042FD0221942000F03EFD142000F07A
:1051E00077FF0121072000F037FD142000F070FF49
:1051F0006121072000F030FD40F27311072000F01C
:105200002BFD0021202000F027FD0021212000F0AF
:1052100023FD2221002000F01FFD76E40021084636
:1052200000F01AFD0021084600F016FD142000F0E1
:105230004FFF0021084600F00FFD0021084600F056
:105240000BFD0021084600F007FD0021084600F094
:1052500003FD0121A42000F0FFFC142000F038FF22
:105260004FF41C51602000F0F7FC40F606010820C6
:1052700000F0F2FC40F203731946302000F0ECFC21
:105280000121312000F0E8FC0421322000F0E4FC90
:105290004FF48171332000F0DFFC5946342000F0D8
:1052A000DBFC40F20311352000F0D6FC1F21362034
:1052B00000F0D2FC1946372000F0CEFC0121382046
:1052C00000F0CAFC0421392000F0C6FC1521902012
:1052D00000F0C2FC4FF48261102000F0BDFC40F2EF
:1052E0004721112000F0B8FC4FF4DE71122000F0CD
:1052F000B3FC4FF46061132000F0AEFC782000F0A6
:10530000E7FE2146012000F0A7FC4FF400710220C7
:1053100000F0A2FC41F23001032000F09DFC0821C6
:105320000A2000F099FC00210C2000F095FC2021BF
:105330000E2000F091FC00210F2000F08DFC0021D8
:10534000202000F089FC0021212000F085FC3D2177
:105350002A2000F081FC142000F0BAFE2D21292023
:1053600000F07AFC0021502000F076FC4DF2EF01B5
:10537000512000F071FC0021522000F06DFC5146DC
:10538000532000F069FC0021612000F065FC002141
:105390006A2000F061FC5946922000F05DFC052176
:1053A000932000F059FC2146072000F055FC88E4CA
:1053B0000121002000F050FC0A2000F089FE41F29B
:1053C0002861102000F048FC0E21122000F044FC5F
:1053D00040F63921132000F03FFC0A2000F078FE4F
:1053E0004021112000F038FC5021152000F034FC41
:1053F0000A2000F06DFE1E21122000F02DFC0A2074
:1054000000F066FE4FF4B151102000F025FC42F68A
:105410003921132000F020FC0A2000F059FE21461B
:10542000012000F019FC5946022000F015FC41F261
:105430003801032000F010FC4946082000F00CFC65
:1054400008210A2000F008FC0021302000F004FCB4
:1054500040F20241312000F0FFFB4FF48371322013
:1054600000F0FAFB40F20351332000F0F5FB4FF45B
:105470008271342000F0F0FB40F20131352000F061
:10548000EBFB2946362000F0E7FB40F205313720E0
:1054900000F0E2FB4FF40271382000F0DDFB40F633
:1054A0000B71392000F0D8FB0221412000F0D4FB21
:1054B0004FF41C51602000F0CFFB0121612000F06F
:1054C000CBFB4FF40471902000F0C6FB4FF48571C4
:1054D000922000F0C1FB0421932000F0BDFB214687
:1054E000A02000F0B9FB0121072000F0B5FB21212D
:1054F000072000F0B1FB2321072000F0ADFB332192
:10550000072000F0A9FB40F23311072000F0A4FBB4
:105510000021A02000F0A0FB78E43021152000F04D
:105520009BFB10219A2000F097FB2021112000F016
:1055300093FB43F22841102000F08EFB0221122041
:1055400000F08AFB41F23801132000F085FB28208F
:1055500000F0BEFD1221084600F07EFB282000F07E
:10556000B7FD43F22041102000F076FB43F23801F2
:10557000132000F071FB462000F0AAFD002130202E
:1055800000F06AFB40F20241312000F065FB40F27E
:105590000731322000F060FB4FF44171332000F0FE
:1055A0005BFB0421342000F057FB40F20141352021
:1055B00000F052FB2946362000F04EFB40F2053148
:1055C000372000F049FB4FF4C2631946382000F041
:1055D00043FB1946392000F03FFB2146012000F033
:1055E0003BFB5946022000F037FB41F2300103201B
:1055F00000F032FB40F60801082000F02DFB0821E6
:105600000A2000F029FB4FF41C51602000F024FB1D
:105610000121612000F020FB4FF49F71902000F0E9
:105620001BFB2146922000F017FB2146932000F03F
:1056300013FB4FF44051A02000F00EFB1021A320DB
:1056400000F00AFB0121072000F006FB21210720C2
:1056500000F002FB2321072000F0FEFA332107208F
:1056600000F0FAFA40F23311072000F0F5FAD7E41F
:105670000346012000E05843491EC9B2FBD27047DF
:1056800008B5034800880090BDF8000008BD000080
:105690000008006C10B500F0CFFA052000F02CFDDA
:1056A000BDE81040FFF7ECBF10B50246BE2000F089
:1056B000C3FA052000F0BAFA104601F042F94FF0A3
:1056C00066320B4B01F050F901F00EF980B200F098
:1056D000ADFA012000F0AAFAFF2000F0A7FA00209E
:1056E00000F0A4FABDE81040002000F09FBA0000CE
:1056F00066660440F0B50023834C46F60407214655
:10570000A279898841F66315012A03D1B94201D0F3
:10571000A94202D1C2B9A94216D1082814D2DFE8A1
:1057200000F00406080A0C0E101206200CE00720F8
:105730000AE0042008E0052006E0012004E0002043
:1057400002E0032000E00220A1F5134C45F21032E4
:1057500045F21056BCF1410C07D0B94205D0914238
:1057600003D0B14201D0A9427DD1082812D2DFE88E
:1057700000F0110406080A0C0E1080230AE04023F2
:1057800008E0C02306E0202304E0602302E0A02319
:1057900000E0E023B14202D14FF4585000E036203F
:1057A000914205D0B14203D0A94201D043F0080391
:1057B000B94201D143F00203194600F04DFAA28824
:1057C000AA420ED0980606D520886188884208D261
:1057D0002180608005E020886188884201D921808D
:1057E0006080B24249D1608900F026FA002000F0C2
:1057F0001DFA6089401C80B200F01EFA002000F003
:1058000015FA6089801C80B200F016FA2088401ECC
:10581000C0F30F2000F00AFA6089C01C80B200F0CB
:105820000BFA2078401EC0B200F000FAA08900F008
:1058300003FA002000F0FAF9A089401C80B200F0C1
:10584000FBF9002000F0F2F9A089801C80B200F082
:10585000F3F96088401EC0F30F2000F0E7F9A0893B
:10586000C01C80B200E032E000F0E6F9A078BDE8AC
:10587000F040401EC0B200F0D9B9608900F0DCF9F8
:10588000002000F0D3F9002000F0D0F92088401E5D
:10589000C0F30F2000F0CAF92078401EC0B200F01B
:1058A000C5F9A08900F0C8F9002000F0BFF9002078
:1058B00000F0BCF96088401EC0F30F2000F0B6F97C
:1058C000A078BDE8F040401EC0B200F0AFB9082893
:1058D00012D2DFE800F0040608110A0C0E10302383
:1058E0000AE0102308E0202306E0382304E0282300
:1058F00002E0182300E00823032043F48051BDE8B0
:10590000F04000F0A9B900001C3400202DE9F0415E
:1059100002460B46584E1F0A3046B1884089A1F511
:1059200013444FEA1228413C1AD0A1F5A644103C7A
:1059300016D03446A1F5D04CA5792488A41A641E4B
:10594000BCF1040C1FD0A1F5C85CBCF1630C30D0D5
:10595000A1F5A04CBCF5A26C65D0012D7DD082E0F4
:1059600000F06AF9404600F061F9D0B200F05EF94B
:10597000B08900F061F9384600F058F9BDE8F0410F
:10598000D8B200F053B9012D00D1A2B200F054F901
:10599000100A00F04BF9D0B200F048F9B08900F0DD
:1059A0004BF9384600F042F9BDE8F041D8B200F0BA
:1059B0003DB945B300F040F9404600F037F9D0B2A8
:1059C00000F034F93088401EC0F30F2000F02EF9AB
:1059D0003078401EC0B200F029F9B08900F02CF9EF
:1059E000384600F023F9D8B200F020F97088401E44
:1059F000C0F30F2000F01AF9B078BDE8F041401E66
:105A0000C0B200F013B9A2B200F016F9002000F005
:105A10000DF9002000F00AF9100A00F007F9D0B2E1
:105A200000F004F9D9E700F007F9404600F0FEF86D
:105A30007089401C80B200F0FFF8D0B200F0F6F898
:105A4000B08900F0F9F8384600F0F0F8B089401C51
:105A500080B200F0F1F8D8B200E003E0BDE8F04118
:105A600000F0E4B8A2B2114600F0F6F8B089BDE843
:105A7000F041194600F0F0B81C3400202DE9F84F31
:105A800082460C461F46A346780701D0012000E05D
:105A9000002000EBD70079084843C0B20090203ABC
:105AA00002F0FF09002649E00C2F14D0102F19D066
:105AB000182F46D1244909EBC90001EB8000855D10
:105AC0004FF00008280612D520482146028850468B
:105AD000FCF7E8F913E01E4909EB490001EB8000EF
